S016000075736172745F636F6D5F706F72742E737265631D
S214080000402A07204507080041070800410708005E
S21408001041070800410708004107080000000000E3
S2140800200000000000000000000000004107080073
S21408003041070800000000004107080041070800C3
S2140800404107080041070800410708004107080063
S2140800504107080041070800410708004107080053
S214080060410708004107080000000000B105080025
S214080070C5050800D9050800ED05080000000000C1
S2140800800000000041070800410708004107080073
S2140800904107080041070800410708004107080013
S2140800A04107080000000000410708004107080053
S2140800B041070800410708004107080041070800F3
S2140800C041070800410708004107080041070800E3
S2140800D041070800410708004107080041070800D3
S2140800E041070800410708004107080041070800C3
S2140800F04107080010B5054C237833B9044B13B1F3
S2140801000448AFF300800123237010BD6C09072054
S21408011000000000A0280800084B10B51BB10849CD
S2140801200848AFF300800848036803B910BD074BBA
S214080130002BFBD0BDE81040184700BF00000000A9
S21408014070090720A0280800A02808000000000062
S21408015090B92DE9F0410C469046002A0FDD8F181D
S214080160084E094D306821462B6898470134A74247
S214080170F8D14046BDE8F0814FF0FF3070470020C8
S214080180BDE8F081380A0720300A0720013802281F
S21408019015D82DE9F0410E4614469AB10D46DFF8FB
S2140801A038800C4FD8F8000015F8011B3B689847B4
S2140801B000280ADBA81B013CF4D1BDE8F0814FF00B
S2140801C0FF3070470020BDE8F0814FF0FF30BDE8F3
S2140801D0F08100BF340A0720380A072010B4AC2381
S2140801E003600B684A68B3FBF2F31B095C1E4FF604
S2140801F0FE7294420AD803628B68436040F2022378
S214080200C0F8203150230360002000E0012010BC15
S214080210704700BF436913F0020F1ABFC161002080
S21408022001207047436913F0010F1DBF83690B70E7
S21408023000200120704700BF436913F0020F1DBF5E
S214080240C1F30801C161002001207047436913F01B
S214080250010F05D08369C3F308030B6000207047BD
S2140802600120704710B50E480E4B98473E210020D7
S2140802700D4B98470D4CA0470028FCD00C4B9847D0
S2140802800C4A0D4B9A620D4CA0470028FCD0102053
S2140802900B4B98470B4B98470148024B984710BDA5
S2140802A000BD0105A500072069060800BD06080070
S2140802B0CD060800013F0D2000060E40DD060800AA
S2140802C001060800F107080010B54FF40042164B67
S2140802D05A600B20154CA0470C20A0470D20A047BD
S2140802E00E20A0474FF060513B20114CA0474FF01E
S2140802F060515520A0474FF060515620A0470D4941
S2140803006820A0470C495C20A0470C4A4FF440716F
S2140803100B480C4B98474FF000612B20A0474FF036
S21408032000612A20A04710BD501A0E40ED060800AE
S214080330ED030800790000280100002801000008E5
S214080340000E0E40C10408004264B1F1805F16D06A
S21408035004D8C1B1B1F1006F0AD013E0B1F1405F23
S21408036011D0B1F1605F0ED0B1F1205F0AD17047AD
S214080370016F036F0B4023EA0203036702E0036F73
S2140803801343036742607047416412F0010F14BFBD
S2140803904166016612F00A0F14BF0162416212F04C
S2140803A0020F02D0C0F8801004E012F0080F18BF41
S2140803B0C0F8841041610160704700BF10B4416402
S2140803C0019C0CB1416600E001660BB1016500E0D6
S2140803D041650AB1016300E041630161016010BC38
S2140803E0704700BFC06C7047806C704770B582B0AD
S2140803F00D46430903F5001303F207735C0201F088
S214080400F043B3F1205F30D006D8B3F1006F0AD0BE
S214080410B3F1805F18D049E0B3F1405F30D0B3F154
S214080420605F2DD042E000F01F000126864032466D
S2140804304FF0006120461F4B984715F0010F14BF78
S21408044066662666012032E000F01F000126864018
S21408045032464FF080512046164B984715F0010F4C
S21408046014BF66662666012021E000F01F010126FB
S2140804702A4606FA01F120460F4B9847304616E002
S21408048005F0605200F01F01012605EA06030093F6
S214080490C5F38003B2F1605F14BF0022012206FA9A
S2140804A001F12046054CA047304600E0002002B087
S2140804B070BD00BF4903080089030800BD03080093
S2140804C070B582B005460E46144602F0F043B3F106
S2140804D0205F26D006D8B3F1006F0AD0B3F1805F4C
S2140804E013D034E0B3F1405F1FD0B3F1605F1CD087
S2140804F02DE00A464FF00061164B984714F0010F9E
S21408050014BF6E662E66012022E00A464FF0805120
S214080510104B984714F0010F14BF6E662E66012024
S21408052016E00D4B9847012012E004F0605204F0E4
S21408053001030093C4F38003B2F1605F14BF002286
S214080540012231462846054CA047012000E000203D
S21408055002B070BD4903080089030800BD030800FF
S2140805602DE9F041044688460E4B98470546204636
S2140805700D4B9847054013D00C4C04F160062368D1
S214080580434508D16168294205D0E3684046984744
S214080590636825EA0305B44202D01034002DEED174
S2140805A0BDE8F081E5030800E9030800880907208C
S2140805B008B50B210148024B984708BD000E0E40AF
S2140805C06105080008B50C210148024B984708BD8C
S2140805D000100E406105080008B50D210148024BC1
S2140805E0984708BD00120E406105080008B50E21A0
S2140805F00148024B984708BD00140E4061050800E4
S214080600184A136B23F0700318431063936E13F0A5
S214080610080F03D009E0013B03D11EE04FF4006346
S21408062010498A6E12F0080FF5D00E4A136B23F0A5
S214080630030343F002031363906E10F0080004D01F
S21408064000207047013B03D109E04FF400630549D9
S2140806508A6E12F0080FF5D0704701207047012007
S214080660704700BF00060E4038B111490B6A114AA0
S2140806701A40114B13430B6270470D48026A090271
S21408068089B222F45C1323F0030343F45C1343F0AB
S21408069001030B4303620246936E13F0010FFBD06F
S2140806A0034A136A43F09B7343F48033136270471C
S2140806B000060E40FCFFC8FE02003701024B986E8B
S2140806C000F48030704700BF00060E404FF000521E
S2140806D0014B9A62704700BF00060E40024B986EA8
S2140806E000F00200704700BF00060E402C281ED8F7
S2140806F01F280CD8114B9A6901238340934318D0BE
S214080700012303FA00F00D4B1861002070472038CB
S2140807100A4BD3F808210123834093430BD00123C7
S21408072003FA00F0054BC3F80001002070470120CB
S2140807307047002070470020704700BF00060E4034
S214080740FEE700BF08B51E4B1E4A9A4203D01E4B52
S2140807501B4A9A4204D31D4B1D4A9A420FD31AE0ED
S21408076017491C4B5B1A23F003030433154A13443A
S21408077052F8040B41F8040B9A42F9D1EBE7164BF2
S214080780164AD21A22F003021A44043B002143F800
S214080790041B9342FBD1124B23F0604222F07F02E7
S2140807A010498A6003F16043B3F5801F03D28B6853
S2140807B043F000538B600C4B98470C4B9847FEE76A
S2140807C000000720A02808006C090720400A072018
S2140807D06C0907206B09072070090720430A0720C1
S2140807E00000080000ED00E0150C0800410B0800AA
S2140807F03E4B1B6B03F00303032B5FD8DFE803F0C5
S214080800020E2B2B3A4B5B6913F0800F14BF4FF484
S21408081000424FF4FA42374B1A604FE0334B1B6ADC
S21408082013F0807F03D0344A324B1A6046E0334ACE
S214080830304B1A602D4B1B6A03F07003102B02D046
S214080840202B04D03AE02E4A2A4B1A6036E02A4A71
S214080850284B1A6032E0254B1B6A13F0807F03D0C2
S214080860254A244B1A6012E0244A224B1A601F4B72
S2140808701B6A03F07003102B02D0202B04D006E06E
S2140808801F4A1C4B1A6002E01B4A1A4B1A60174B89
S2140808901B6B03F00303022B0DD1144A936A926A6A
S2140808A01448C3F30A41036801FB0333D2B2B3FB0F
S2140808B0F2F3036002E0134A0E4B1A600B4B1B6BF5
S2140808C003F07003702B07D10A4A13680E49A1FB80
S2140808D003135B0813607047044B1B6B0549C3F38F
S2140808E002120B68D3400B60704700BF00060E402C
S2140808F0101A0E402C010720001BB70000093D0007
S21408090000127A00001C4E0EABAAAAAA094B1B6856
S21408091013B9094A074B1A60064B1B681A18074989
S214080920914204DB1046034A1060184670474FF0A1
S214080930FF307047F8090720402A0720FC7F082068
S2140809404FF0FF30704700BF4FF400534B60002055
S214080950704700BF0120704700207047F0B583B08D
S21408096004460D46002301931F4B984207D11F46A5
S2140809701E4E29463846B0470028FAD119E01C4BC7
S214080980984209D11F461B4E01A93846B047002891
S214080990FAD1019B2B7019E0174B984209D11E46D5
S2140809A0144C01A93046A0470028FAD1019B2B70A9
S2140809B018E0124B9C4209D11E460E4C01A930463F
S2140809C0A0470028FAD1019B2B700BE00C4B9C42E9
S2140809D008D11E46074C01A93046A0470028FAD180
S2140809E0019B2B7003B0F0BD00080E4025020800DE
S2140809F0008009404D02080000C0094000000A4077
S214080A0000400A4070B50C461E4B984208D11E4658
S214080A101D4D21463046A8470028FAD1012070BD52
S214080A201A4B984208D11E46194D21463046A8470B
S214080A300028FAD1012070BD164B984208D11E46F0
S214080A40134D21463046A8470028FAD1012070BD2C
S214080A50114B984208D11E460D4D21463046A847F0
S214080A600028FAD1012070BD0C4B984208D11E46CA
S214080A70074D21463046A8470028FAD1012070BD08
S214080A80002070BD00080E401502080000800940CE
S214080A903902080000C0094000000A4000400A4029
S214080AA02DE9F047054601260022214CDFF8848010
S214080AB0DFF88490DFF884A0B5FBF4F13031C9B2D2
S214080AC0302902D10AB90A2E14D1D8F80000826853
S214080AD09368013B9360002B04DA9769BB4207DBF7
S214080AE00A2905D01368581C10601970012201E005
S214080AF0C8470122B5FBF4F304FB1355AAFB0434DC
S214080B00E40801360B2ED7D10A4B1868826893681A
S214080B10013B9360002B04DA0A21074B9847BDE88F
S214080B20F0871368591C11600A221A70BDE8F0870E
S214080B3000CA9A3B58050720350F0800CDCCCCCC08
S214080B4000B585B0224B9847224B98470820224D7F
S214080B50A847224C224B1C60224A234B1A60234A81
S214080B60234B1A60234B01934FF4E13302934FF45F
S214080B70006303930820A84701A920461E4B984700
S214080B801E4C2368002198681D4DA847236800213D
S214080B905868A8471B481C4B984720688268936883
S214080BA0013B9360002B02DA91698B4205DB1368E0
S214080BB0591C116061221A7002E06121134B984794
S214080BC040F23720124CA04740F2FD20A047FEE72F
S214080BD065020800C9020800ED06080000080E4075
S214080BE0380A0720050A0800340A07205D090800A5
S214080BF0300A072000BD0105DD010800580507205A
S214080C00790D08006C280800690D0800350F0800E3
S214080C10A10A080070B50F4E0F4D761BB61018BF08
S214080C20002405D0013455F8043B9847A642F9D16C
S214080C300A4E0B4D01F022FE761BB61018BF002494
S214080C4006D0013455F8043B9847A642F9D170BD42
S214080C5070BD00BF8828080088280800902808006B
S214080C608828080070B4840746D0541E002A41D04D
S214080C70CDB2034602E0621EE4B3144603F8015BF5
S214080C809A07F8D1032C2ED9CDB245EA05250F2CA4
S214080C9045EA054519D9264603F11002103E0F2EDF
S214080CA042F8105C42F80C5C42F8085C42F8045CB7
S214080CB002F11002F2D8A4F1100222F00F0204F09A
S214080CC00F041032032C13440DD91E462246043A4C
S214080CD0032A46F8045BFAD8221F22F003020432DD
S214080CE0134404F003042CB1C9B21C4403F8011BD6
S214080CF0A342FBD170BC704714460346C2E700BF48
S214080D00F0B5054689B008460C4600F0E5F8431CE1
S214080D10144F0393AB6B012604A902220494059092
S214080D20AC680697079601910292B3B1B4F90C30F5
S214080D309A0406D4626E43F4005322F40052A38148
S214080D4062662146284601AA00F04AFC002814BF1D
S214080D504FF0FF300A2009B0F0BD284600F0ECFA44
S214080D60E4E700BF78280800024B01461868FFF73A
S214080D70C7BF00BF5805072000290CBF0222002263
S214080D804FF4806300F000B82DE9F043514D83B06E
S214080D902D6804460F4690461E4615B1AB6B002BD1
S214080DA079D0B8F1020F04D0B8F1010F7FD8002E21
S214080DB07DDB2146284600F02BFA216B41B104F171
S214080DC04003994202D0284600F022FB0023236302
S214080DD0B4F90C300022A26162601A0654D423F4D7
S214080DE04A6323F00303B8F1020FA38139D001AB9D
S214080DF06A462146284600F09FFDA3891843A0812D
S214080E0026B327B3AB6B002B4DD0009BB4F90C0070
S214080E109E421CBF40F40060A081B8F1010F08BFD5
S214080E2040F0010083B208BFA08103F0080080B23A
S214080E3027602761666118B313F001002FD00020E1
S214080E407642A661A06003B0BDE8F083009E3046F7
S214080E5000F0E6FD074668B3A38943F08003A38144
S214080E60D0E7002004F1430243F0020300250121E5
S214080E70A381A56022602261616103B0BDE8F083AA
S214080E80A06003B0BDE8F0832169284600F0C0FAE8
S214080E90B4F90C30A3E7284600F04EFA81E7A660BE
S214080EA003B0BDE8F083284600F046FAADE74FF0F9
S214080EB0FF30E2E7DDF80090B14506D0484600F07E
S214080EC0AFFD074608B14E46C6E7B4F90C304FF0FA
S214080ED0FF30C7E75805072020F0030110F003008D
S214080EE0C0F1000051F8043B00F1040C4FEACC0CAA
S214080EF06FF000021CBF22FA0CF213434FF0010CED
S214080F004CEA0C2C4CEA0C4CA3EB0C0222EA03022B
S214080F1012EACC1204BF51F8043B0430F4D0C2F1F4
S214080F20000102EA0102B2FA82F2C2F11F0200EBE5
S214080F30D2007047F8B50E461446074610B1836BC4
S214080F40002B4AD0B4F90C20A36991B20807A36015
S214080F5038D52369002B35D08904F5B215D5226813
S214080F606169D31A8B421CDA0133A168501C013917
S214080F70A1602060167062699A421AD0A389DB07BE
S214080F8001D50A2D15D02846F8BD616E42F40052E8
S214080F9021F40051A281226861666169D31A8B42E6
S214080FA0E2DB2146384600F033F940B922680123CF
S214080FB0DBE72146384600F02BF90028E3D04FF04F
S214080FC0FF30F8BD2146384600F00AF80028F6D16A
S214080FD0B4F90C20236991B2BEE700F0ADF9B1E789
S214080FE038B5304B054618680C4610B1836B002B95
S214080FF038D0B4F90C2093B218070CD52069A8B1DC
S21408100013F001021ED0636900225B42A361A2604E
S214081010F0B1002038BDD9063BD5580725D420693D
S21408102042F00803A3819BB20028E9D103F420729A
S214081030B2F5007FE4D02846214600F0ADFCA3892F
S2140810402069DDE7990758BF6269A2600028E0D1E9
S214081050B4F90C301A06DDD543F04003A3814FF0EF
S214081060FF3038BD00F068F9C3E7216B51B104F1D1
S2140810704003994204D0284600F0CAF9B4F90C2077
S214081080002323632069002322F0240284E8090051
S214081090C6E742F0400209232B604FF0FF30A281DA
S2140810A038BD00BF58050720024B13B1024800F0B0
S2140810B005B87047000000004D13080000230146DD
S2140810C01A46184601F0DABAB1F90C302DE9F041A3
S2140810D09AB20D46110780463CD46A6843F400630A
S2140810E0002AAB8173DDAC6A002C4BD09BB203F4AC
S2140810F08052002192B2D8F80060C8F80010002A82
S21408110069D02A6D5F0705D569682B6B521A0BB133
S214081110EB6BD21A0023E9694046A047441C3CD032
S214081120B5F90C30296923F400630022AB81DB048F
S21408113085E8060049D4296BC8F8006011B305F1A4
S2140811404003994202D0404600F062F90020286326
S214081150BDE8F0812E69AEB190072C680CBF6B69AC
S21408116000232E60A41BAB600AE0234632466F6A53
S214081170E9694046B8470028A4EB0004064404DDA5
S214081180002CF2DC0020BDE8F081AB894FF0FF3080
S21408119043F04003AB81BDE8F081D8F800201D2A53
S2140811A0F3D81A4BD34003F0010383F00104002B55
S2140811B0EBD0B5F90C30296923F400632960D9040B
S2140811C06C60AB81B7D5002AB5D12865B3E7EA6B62
S2140811D0002A88DCD6E70123E9694046A047431C75
S2140811E0024602D0AB89AC6A8CE7D8F80030002BF0
S2140811F0F8D01D2B01D0162B02D1C8F80060C1E725
S214081200AB8943F04003AB81BDE8F0810100402084
S21408121010B5044682B008B1836B53B1B1F90C001F
S21408122008B902B010BD204602B0BDE81040FFF76E
S2140812304BBF019100F080F80199EFE7014900F0F3
S21408124053BB00BF452708002DE9F04F0746354831
S2140812507D68002407F53B7204230321F863C7F86A
S214081260E412C7F8E822C7F8E04283B02C606C6046
S214081270AC606C66EC812C616C61AC61AB8121461C
S21408128005F15C000822FFF7EDFCDFF89CB0BE68AD
S214081290DFF898A0DFF89890DFF8988001230922F5
S2140812A0C5F820B0C5F824A0C5F82890C5F82C8045
S2140812B0ED612146F381B28106F15C00346074600A
S2140812C0B460746634617461B46108220193FFF7F0
S2140812D0C9FCFD6812200222F661C6F820B0C6F8DE
S2140812E024A0C6F82890C6F82C802146A881EA8152
S2140812F02C606C60AC606C662C616C61AC6105F14E
S2140813005C000822FFF7AEFC019BED61C5F820B033
S214081310C5F824A0C5F82890C5F82C80BB6303B090
S214081320BDE8F08F3D120800C9250800ED25080025
S2140813302926080049260800836B03B17047FFF783
S21408134083BF00BF704700BF704700BF38B5074D62
S214081350074C2C1BA41005D0013C55F8043D9847B3
S214081360002CF9D1BDE8384001F092BAA028080050
S2140813709C280800F8B50C46224F064600F024FFC5
S214081380BB685D6825F00305291B01F6EF7121F49B
S2140813907F6121F00F01A1F58054B4F5805F07DB6B
S2140813A00021304601F0FEF8BB682B44984204D072
S2140813B0304600F00BFF0020F8BD6142304601F0D1
S2140813C0F1F801300DD0104BBA6819682D1B45F09E
S2140813D001053046091B5560196000F0F7FE01202C
S2140813E0F8BD0021304601F0DDF8BA68831A0F2BE5
S2140813F0DEDD064C0449246843F00103001B5360F5
S2140814000860D5E75C050720080A07206809072052
S214081410002945D02DE9F0410D46804600F0D4FE5F
S21408142055F8047C6A49A5F1080427F00103E21878
S2140814308E685068B24220F0030062D0FE07506003
S2140814400BD455F8087C01F1080EE41BA5683B444C
S21408145075456FD0E768EF60BD6015186D68ED07D5
S21408146042D543F001026260E350B3F5007F18D21C
S214081470DB0848689D100122013351F8337002FAE0
S21408148005F501EBC3022843083AE260A760486006
S21408149041F83340FC604046BDE8F04100F096BE97
S2140814A070475A0A042A53D89A0902F139077F0066
S2140814B002F1380501EB870051F8272008389042DA
S2140814C043494DD0516821F003018B4202D29268FD
S2140814D09042F7D1D068E060A2608460D46040464D
S2140814E0BDE8F04100F072BE95683A4F0344BD422D
S2140814F03FD0D06843F00102E86085606260E35040
S214081500B3E7FF07034407D455F8085C641BE26892
S214081510A0682B44C26090602F4A43F0010012680E
S214081520606093428C60B6D32C4B40461968FFF730
S21408153021FFB0E711184968C90744D491680344E5
S214081540D26843F00100CA6091606060E350A2E789
S214081550142A17D802F15C077F0002F15B05A9E799
S214081560AA104B68012505FA02F213434B6002469F
S214081570B1E743F001024C610C61E560A56062606A
S214081580E35088E7542A06D81A0B02F16F077F0043
S21408159002F16E058EE7B2F5AA7F06D8DA0B02F1DD
S2140815A078077F0002F1770584E740F254508242BC
S2140815B006D89A0C02F17D077F0002F17C0579E7D0
S2140815C0FE277E2576E743F001026260E35062E775
S2140815D05C0507206405072064090720040A07201D
S2140815E09368002B00F0AB802DE9F04F8B8985B00F
S2140815F00C4619070290164628D5226932B303F01E
S21408160002081FFA88F0356878B34FF00009C84614
S214081610DFF8D0A2B8F1000F00F08B80D045434623
S2140816204A4628BF5346E1690298676AB8470028C1
S21408163040F3A580B36881441B1AC0EB0808B36062
S214081640002BE7D1002005B0BDE8F08F21460298B0
S214081650FFF7C6FC002840F03C81A389356803F0F4
S21408166002081FFA88F00028CFD113F0010940F0CD
S21408167090804F460196002F56D09A05D4F80880D9
S2140816805FD54745C246C0F0BF8013F4906F00F0A0
S214081690BD8062692068216902EB4208C1EB000A36
S2140816A008EBD8780AF101004FEA68083844404544
S2140816B0424684BF804642465B0540F1F2801146AA
S2140816C0029800F0B5F98346002800F005815246D6
S2140816D0216900F09FFCA38923F4906343F08003FC
S2140816E0A381CAEB08030BEB0A00C4F81480BA46B9
S2140816F0B846C4F810B02060A3605246494600F0C9
S214081700FFFCA0682368C8EB0000A0603846534476
S2140817102360019A814493683F1A1B1A9360002B32
S21408172090D0A389002FA8D1D5F800906F68083507
S214081730A1E7D5F80090D5F8048008356AE70020B8
S214081740704720682369984203D86269974280F0F8
S2140817508380B84528BFB8464946424600F0D0FCC4
S214081760A3682268C8EB03034244A3602260002BE8
S21408177048D121460298FFF74BFD002842D0B4F91D
S2140817800C3043F040034FF0FF30A38105B0BDE8AE
S214081790F08F8046824681460190B9F1000F29D025
S2140817A0019B002B4BD0C845C34628BFCB462068B4
S2140817B023695F469842626903D9A36813449B4528
S2140817C05CDC934524DB1346676A5246E169029857
S2140817D0B847071ED3DDB8EB070827D0B368BA4466
S2140817E0DB1BC7EB0909B360002B3FF42BAFB9F13D
S2140817F0000FD5D10023D5F800A0D5F804900193A2
S2140818000835CAE7404684E7B846BA46206874E70B
S2140818105A46514600F074FCA2682368CBEB0202D5
S2140818205B44B8EB0708A2602360D7D1214602982C
S214081830FFF7EEFC0028A2D1CDF80480CEE74A4692
S2140818400A21504600F0A0FB00283DD001300123B5
S214081850CAEB00080193A6E76FF00043BB4228BF17
S2140818603B4693FBF2F3E16902FB03F302984A4610
S214081870666AB04700283FF74CAF80E71A465146DD
S214081880039300F03DFC2268039B21461A4422601D
S2140818900298FFF7BDFC039B00287FF470AF1F4635
S2140818A099E7029800F094FC834600287FF419AF65
S2140818B0029D21692846FFF7ABFDB4F90C300C22CF
S2140818C023F080032A605CE7012309F101080193ED
S2140818D069E74FF0FF30B6E6029A0C231360B4F9B6
S2140818E00C304EE700FCFF7F2DE9F84310F53876FC
S2140818F01ED0884607464FF000097568B468013D53
S21408190010D4A389013D012B08D9B4F90E30013350
S21408191004D021463846C04749EA00096B1C04F142
S2140819206804EED13668002EE7D14846BDE8F8834D
S214081930B1464846BDE8F88370B50E46B1F90E10B4
S21408194090B0002914461D4614DB01AA00F03CFF9F
S21408195000280FDB029A4FF4806302F47042A2F567
S2140819600052B2FA82F24FF4006052092A602360ED
S21408197010B070BDB289002002F0800292B22860D2
S2140819801AB14023236010B070BD10464FF4806330
S214081990236010B070BD00BF8A890B46920706D533
S2140819A001F1430201211A601A6159617047F0B5C6
S2140819B083B001AB6A460C460546FFF7BDFF0099A3
S2140819C00646284600F034F8B4F90C30D0B19DE845
S2140819D00600124F43F08003EF63A3812060206166
S2140819E061611AB93343A38103B0F0BD2846B4F940
S2140819F00E1000F0FDFEB4F90C300028F2D043F0CB
S214081A000103EFE79A05EFD404F1430243F002031B
S214081A100121A381226022616161E5E73D12080089
S214081A20024B0146186800F003B800BF58050720A7
S214081A302DE9F04F01F10B05162D83B0064640F24E
S214081A40A08035F0070500F1C080A94200F2BD80ED
S214081A5000F0BAFBB5F5FC7FC0F090826B0A00F088
S214081A60BB80042B00F27781A80900F1390E4FEAF3
S214081A704E013830BE4F07EB81014C680839A14249
S214081A8007D1AEE0002A80F2AE80E468A14200F0FA
S214081A90A880636823F003035A1B0F2AF2DDB449B3
S214081AA03C6901F1080E744500F0A881636823F0CC
S214081AB003035A1B0F2A00F38E81002AC1F814E08C
S214081AC0C1F810E080F29380B3F5007F80F05C8167
S214081AD0DB084A684FEAA3094FF0010C013351F8B6
S214081AE033800CFA09F901EBC30C49EA0202ACF19F
S214081AF0080CC4F80CC0C4F808804A6041F83340A3
S214081B00C8F80C40831001249C4094427CD81442A8
S214081B1006D120F003006400144200F10400FAD055
S214081B2007EBC009CC468046DCF80C108C4507D17C
S214081B3066E1002A80F27481C9688C4500F06081ED
S214081B404B6823F003035A1B0F2AF2DD0C46CB68BA
S214081B5054F808CF45F00108C1F804800D4442F057
S214081B600101CCF80C303046C3F808C07D613D61F1
S214081B70C5F80CE0C5F808E06960AA5000F026FB36
S214081B801FE0102921D800F01FFB1025062302208D
S214081B90774F07EB83035C68A3F10802944200F0D2
S214081BA038816368E16823F0030323445A68A5680C
S214081BB042F00102E96030468D605A6000F006FB8C
S214081BC00834204603B0BDE8F08F002420460C23D6
S214081BD0336003B0BDE8F08F80214FF0400E3F2001
S214081BE048E770465BE723445A68E168DFE7234422
S214081BF05A68304642F001025A60083400F0E6FAA5
S214081C00204603B0BDE8F08FBC68636823F003087D
S214081C10A84504D3C5EB08030F2B00F38C80554B5F
S214081C20DFF860911A68D9F800302A44013304EBCB
S214081C30080A00F0608102F580520F3222F47F62B3
S214081C4022F00F0211463046019200F0ABFCB0F1CC
S214081C50FF3F8346019A00F05881824500F2FC80D7
S214081C60454BDA4519681144196000F05381D9F8D4
S214081C700000DFF810E101301BBFCAEB0B0A514425
S214081C80CEF800B019601BF0070100F01781C1F10B
S214081C900800C1F58051834408315A44C2F30B0248
S214081CA0C2EB010949463046019300F07BFC431C11
S214081CB0019B00F03F81CBEB00024A4442F0010250
S214081CC01968BC424944C7F808B01960CBF8042024
S214081CD0DFF8A49016D0B8F10F0F40F2FD806268C6
S214081CE0A8F10C0323F0070302F00102E0184FF0F6
S214081CF0050E1A430F2B6260C0F804E0C0F808E02F
S214081D0000F21C811D4BBC681A68914288BF196096
S214081D101B4B1A689142626888BF196022F003025A
S214081D209542A2EB050301D80F2B04DC304600F0E1
S214081D304DFA002445E745F0010243F00103254427
S214081D4062603046BD6008346B6000F03FFA20469B
S214081D5003B0BDE8F08F142B71D9542B00F2A48081
S214081D60280B00F16F0E4FEA4E016E3082E600BF78
S214081D705C050720040A0720080A0720000A07202F
S214081D80FC090720680907205A0A042A5ED9142A7B
S214081D9000F2B38002F15C0149005B3207EB810C6C
S214081DA057F82110ACF1080C8C45DFF8D88100F004
S214081DB088804A6822F00302934202D289688C45DA
S214081DC0F7D1D1F80CC07A68C4F80CC0A160CCF87A
S214081DD00840CC6096E645F0010742F0010325442A
S214081DE0676030464D610D61C5F80CE0C5F808E03F
S214081DF06B60AA50083400F0E9F9E2E64A6881E622
S214081E0008F1010818F0030F0CF1080C7FF48CAEEB
S214081E1030E0DC68A34208BF02303FF440AEC0E6BC
S214081E200C460B445A68C96854F8085F42F0010229
S214081E305A603046E9608D6000F0C8F9C1E603F1E3
S214081E405C0E03F15B004FEA4E0113E69A0902F1B5
S214081E50390149003832A1E7BC424A4B3FF400AF8B
S214081E609C68626822F003025AE759F808399945CF
S214081E7040F0828010F0030F00F1FF30F5D17B6848
S214081E8023EA04037B6064009C423FF6BDAE002C48
S214081E903FF4BAAE1C4240467FF442AE64001C4291
S214081EA000F10400FAD03BE6B3F5AA7F18D8E80B91
S214081EB000F1780E4FEA4E017730DBE54FF480519B
S214081EC0EBE60121D8F80430921001FA02F21A4320
S214081ED0C8F80420614677E70123CBF8043025E7E5
S214081EE040F25452934220D8A80C00F17D0E4FEAD7
S214081EF04E017C30BEE51032A4E6542A26D81A0BCA
S214081F0002F16F0149006E3248E7BC68626822F049
S214081F10030205E7CAF30B0000287FF4A8AE424484
S214081F20BB6842F001025A60ECE6FE214FF07F0ED5
S214081F307E209FE501224FF00009C1E604F1080162
S214081F403046FFF765FAD9F80010DBE6B2F5AA7F47
S214081F5005D8DA0B02F17801490077321EE740F21D
S214081F6054518A4205D89A0C02F17D0149007C3208
S214081F7014E7FE217E2211E77B6884E7E808431C05
S214081F805B0005E65C050720830770B4CDB23DD03C
S214081F90531E02B30278AA421ED0421C04E0D3B1F4
S214081FA00478013BAC4217D012F0030F104602F13A
S214081FB00102F4D1032B11D853B30278AA420BD0EE
S214081FC00344421C02E00178A94205D09342104619
S214081FD002F10102F7D1002070BC704704460E02D9
S214081FE006F47F462E4346EA064622682046724096
S214081FF0A2F1013121EA020212F0803F04F1040442
S214082000DBD1043B032B2046EFD8D5E71346D1E7B0
S2140820101846E1E7844641EA000313F0030349D172
S214082020403A23D30B6803604B6843608B68836031
S214082030CB68C3600B6903614B6943618B69836135
S214082040CB69C3610B6A03624B6A43628B6A83621D
S214082050CB6AC3620B6B03634B6B43638B6B836305
S214082060CB6BC36340304031403ADBD230320BD3BF
S2140820700B6803604B6843608B688360CB68C360FB
S21408208010301031103AF3D20C3205D351F8043B15
S21408209040F8043B043AF9D2043208D0D2071CBFF1
S2140820A011F8013B00F8013B01D30B88038060461A
S2140820B0704700BF082A13D38B07B1D010F003036C
S2140820C0AED0C3F10403D21ADB071CBF11F8013BDC
S2140820D000F8013BA4D331F8023B20F8023B9FE707
S2140820E0043AD9D3013A11F8013B00F8013BF9D27A
S2140820F00B7803704B7843708B7883706046704714
S2140821008842F0B50DD98B1898420AD28118002A51
S21408211051D09A1A13F8014D934201F8014DF9D19E
S214082120F0BD0F2A48D941EA00039B0746D1154659
S21408213000F1100401F1100353F8106C103D44F838
S214082140106C53F80C6C0F2D44F80C6C53F8086C94
S21408215004F1100444F8186C53F8046C03F11003E7
S21408216044F8146CE8D8A2F1100323F00F0302F029
S2140821700F0E1033BEF1030F1944034421D90E463F
S21408218074461D1F56F8047B043C032C45F8047F50
S214082190F8D8AEF1040424F003040434234421449C
S2140821A002F0030262B1013B0A4411F8014B8A426D
S2140821B003F8014FF9D1F0BD0346F3E70346F2E70B
S2140821C0F0BD7246EEE700BF704700BF704700BF1D
S2140821D02DE9F04F174683B0002900F08F800D4692
S2140821E0814607F10B04FFF7EFFF55F804EC162CB1
S2140821F02EF00306A5F108083CD810221446A7427C
S2140822003DD8964242DAC64B08EB060099688842E3
S214082210416800F0D78021F0010303445B68DB07C0
S2140822204CD51EF0010F00F09D8039464846FFF752
S214082230FFFB074600283AD055F8043CA0F10802F0
S21408224023F0010343449A4200F03E81321F242AB9
S21408225000F22B81132A00F2FF8003462A461168F3
S21408226019605168596092689A6029464846FFF78F
S214082270CFF81CE024F00704002C2246BFDA0C2313
S2140822800020C9F8003003B0BDE8F08F2F46331B96
S2140822900F2BD8F804201DD802F00102324308EBB1
S2140822A00601C8F804204B6843F001034B60484613
S2140822B0FFF78CFF384603B0BDE8F08F21F0030126
S2140822C03144914220DBC36882682F46D3600E46AD
S2140822D09A60DCE702F0010208EB0401144343F0BD
S2140822E00102C8F804400B444A605A68083142F0B4
S2140822F001025A604846FFF78BF8D8E7114603B044
S214082300BDE8F04FFFF794BB1EF0010F8DD155F8CE
S214082310083CC3EB080ADAF8043023F0030C01EB98
S2140823200C0E964526DB5746C3688168321FCB607D
S214082330996057F8081FDAF80C30242ACB609960A1
S21408234000F2C980132A40F292802B681B2ACAF82A
S21408235008306B68CAF80C3000F2CD8008350AF1F0
S214082360100385E055F8083CC3EB080ADAF8043091
S21408237023F0030C06EB0C039342FFF656AF5746C2
S214082380DAF80C1057F8080F321F242AC160886044
S21408239000F2AA80132A40F2A58029681B2ACAF8E8
S2140823A008106968CAF80C1000F2BC8008350AF1F3
S2140823B0100229681E4611606968D0465160AB68ED
S2140823C0936064E721F0030B04F11000B3448345DF
S2140823D057DA1EF0010F7FF428AF55F8081CC1EB3A
S2140823E0080ADAF8041021F0030CE3445845C1DC67
S2140823F05746DAF80C1057F8080F321F242AC1601F
S214082400886000F2B180132A40F2A28029681B2A4D
S214082410CAF808106968CAF80C1000F2AC800835CB
S2140824200AF110022968116069685160A96891600C
S214082430C4EB0B020AEB040142F0010299604A6001
S214082440DAF80430484603F001031C43CAF804408F
S214082450FFF7BCFE38462EE72B681B2A03606B681E
S214082460436026D800F1080305F10802F7E63B4664
S2140824702A6876461A606A68D0465A60AA689A60D9
S21408248005E7C4EB0B0B08EB04014BF0010299605F
S2140824904A6055F8043C484603F001031C4345F8D7
S2140824A0044CFFF793FE284605E72946FFF728FE63
S2140824B0DBE6AB68242A8360EB68C36027D000F1AC
S2140824C0100305F11002CAE650F8043C2F4623F024
S2140824D003031E44DBE6294638467646D046FFF711
S2140824E00FFED4E63A4664E7294638461E46D046E6
S2140824F0FFF706FECBE6AB68242ACAF81030EB686E
S214082500CAF814301AD010350AF11803B0E72A6949
S21408251000F118030261696905F1180241619EE637
S2140825205C050720A968242ACAF81010E968CAF8C2
S21408253014100FD010350AF118023AE72A690AF182
S2140825402003CAF818206A691835CAF81C208FE7CD
S2140825503A4667E729690AF12002CAF81810696935
S2140825601835CAF81C1024E7294638460193FFF7A1
S214082570C7FD019B5CE7A968242ACAF81010E96819
S214082580CAF8141003D010350AF118024AE7296968
S2140825900AF12002CAF8181069691835CAF81C101A
S2140825A040E700BF38B5074C0023054608462360B9
S2140825B0FEF7ACF9431C00D038BD2368002BFBD0CF
S2140825C02B6038BD3C0A072010B50C46B1F90E1032
S2140825D000F036F9002803DB236D0344236510BD9D
S2140825E0A38923F48053A38110BD00BF2DE9F041D1
S2140825F00C46B1F90C101F46CB051646054607D5FE
S214082600B4F90E100223002200F004F9B4F90C10F5
S21408261021F48051A1813B463246B4F90E10284673
S214082620BDE8F04100F014B810B50C46B1F90E102C
S21408263000F0F0F8A389421C0EBF23F4805343F43D
S21408264080532065A38110BDB1F90E1000F068B85C
S21408265070B50D46084C114606461A46284600230D
S2140826602360FDF793FD431C00D070BD2368002B44
S214082670FBD0336070BD00BF3C0A07202DE9F04749
S214082680254C064625688846D5F848419246994618
S214082690C4B360681F2817DC411C76B104EB8003BE
S2140826A0C3F888A0D4F88851012282401543022E28
S2140826B0C4F88851C3F808911ED0831C61600020B6
S2140826C044F82380BDE8F087144B03B34FF4C87072
S2140826D0FFF7A6F90446D0B1D5F84831002784E8B4
S2140826E088003846C5F848410121C4F88871C4F8FE
S2140826F08C71002EE1D0D1E7D4F88C311A43C4F897
S2140827008C21DAE705F5A674C5F84841C1E74FF00D
S214082710FF30BDE8F08700BF74280800211A0800BB
S21408272038B5074C0023054608462360FEF708F927
S214082730431C00D038BD2368002BFBD02B6038BD67
S2140827403C0A072000293DD070B505460C4608B15E
S214082750836B7BB3B4F90C300BB9002070BD2146EF
S2140827602846FEF7B1FCE36A064633B1E169284617
S21408277098470028B8BF4FF0FF36A3891B061CD41D
S214082780216B41B104F14003994202D02846FEF776
S2140827903FFE00232363616C21B12846FEF738FE0E
S2140827A000236364FEF7CEFD0023A381FEF7CCFD6D
S2140827B0304670BDFEF7C0FDCCE721692846FEF717
S2140827C027FEDDE70020704738B50B46074C054660
S2140827D01146184600232360FEF7B6F8431C00D0BF
S2140827E038BD2368002BFBD02B6038BD3C0A072079
S2140827F038B5074C0023054608462360FEF7AAF8B6
S214082800431C00D038BD2368002BFBD02B6038BD96
S2140828103C0A072070B50D46084C114606461A466F
S214082820284600232360FEF797F8431C00D070BDA7
S2140828302368002BFBD0336070BD00BF3C0A07201E
S21408284070B50D46084C114606461A46284600231B
S2140828502360FDF77DFC431C00D070BD2368002B69
S214082860FBD0336070BD00BF3C0A07204200000062
S21408287043000000300107200A000000F8B500BF3A
S214082880F8BC08BC9E467047A91008001901080045
S214082890F8B500BFF8BC08BC9E467047F5000800AF
S2140828A04FF48063204A136002F5007213601F4BD2
S2140828B01B6A13F0807F07D11D4A1C4B1A621A4602
S2140828C0936E13F0010FFBD01A4A184B1A621A4679
S2140828D0936E13F4803FFBD0144A136B23F0030364
S2140828E043F001031363936E13F0080FFBD0124AEC
S2140828F00E4B9A621A46936E13F0020FFBD0112203
S2140829000A4B1A631A46936E13F0080FFBD012226E
S214082910064B1A631A46936E13F0080FFBD0074A45
S214082920074B1A60704700BF000A0E4000060E40AC
S2140829300908370009083701013F0D2000BD0105C9
S2140829402C0107201B4B984206D800231A4A13600E
S21408295002F5007213607047184B984207D84FF478
S2140829608073154A136002F5007213607047144BA3
S214082970984207D84FF400730F4A136002F50072A6
S214082980136070470F4B984207D84FF440730A4AB3
S214082990136002F50072136070470B4B984294BFA1
S2140829A04FF480634FF4A063034A136002F5007285
S2140829B013607047BFEA2101000A0E407FF0FA0252
S2140829C0FF8FD003FFB3C4047F4A5D0500093D00AE
S2140829D0000000001C04072084040720EC040720DD
S2140829E000000000000000000000000000000000DA
S2140829F000000000000000000000000000000000CA
S214082A000000000070280800000000000000000019
S214082A1000000000000000000000000000000000A9
S214082A200000000000000000000000000000000099
S214082A300000000000000000000000000000000089
S214082A400000000000000000000000000000000079
S214082A500000000000000000000000000000000069
S214082A600000000000000000000000000000000059
S214082A700000000000000000010000000000000048
S214082A800E33CDAB34126DE6ECDE05000B0000000D
S214082A900000000000000000000000000000000029
S214082AA00000000000000000000000000000000019
S214082AB00000000000000000000000000000000009
S214082AC000000000000000000000000000000000F9
S214082DF0000000000000000030010720000000006E
S214082E00000000005C0507205C0507206405072015
S214082E10640507206C0507206C0507207405072045
S214082E20740507207C0507207C05072084050720F5
S214082E30840507208C0507208C05072094050720A5
S214082E40940507209C0507209C050720A405072055
S214082E50A4050720AC050720AC050720B405072005
S214082E60B4050720BC050720BC050720C4050720B5
S214082E70C4050720CC050720CC050720D405072065
S214082E80D4050720DC050720DC050720E405072015
S214082E90E4050720EC050720EC050720F4050720C5
S214082EA0F4050720FC050720FC0507200406072074
S214082EB0040607200C0607200C0607201406072021
S214082EC0140607201C0607201C06072024060720D1
S214082ED0240607202C0607202C0607203406072081
S214082EE0340607203C0607203C0607204406072031
S214082EF0440607204C0607204C06072054060720E1
S214082F00540607205C0607205C0607206406072090
S214082F10640607206C0607206C0607207406072040
S214082F20740607207C0607207C06072084060720F0
S214082F30840607208C0607208C06072094060720A0
S214082F40940607209C0607209C060720A406072050
S214082F50A4060720AC060720AC060720B406072000
S214082F60B4060720BC060720BC060720C4060720B0
S214082F70C4060720CC060720CC060720D406072060
S214082F80D4060720DC060720DC060720E406072010
S214082F90E4060720EC060720EC060720F4060720C0
S214082FA0F4060720FC060720FC060720040707206F
S214082FB0040707200C0707200C070720140707201C
S214082FC0140707201C0707201C07072024070720CC
S214082FD0240707202C0707202C070720340707207C
S214082FE0340707203C0707203C070720440707202C
S214082FF0440707204C0707204C07072054070720DC
S214083000540707205C0707205C070720640707208B
S214083010640707206C0707206C070720740707203B
S214083020740707207C0707207C07072084070720EB
S214083030840707208C0707208C070720940707209B
S214083040940707209C0707209C070720A40707204B
S214083050A4070720AC070720AC070720B4070720FB
S214083060B4070720BC070720BC070720C4070720AB
S214083070C4070720CC070720CC070720D40707205B
S214083080D4070720DC070720DC070720E40707200B
S214083090E4070720EC070720EC070720F4070720BB
S2140830A0F4070720FC070720FC070720040807206A
S2140830B0040807200C0807200C0807201408072017
S2140830C0140807201C0807201C08072024080720C7
S2140830D0240807202C0807202C0807203408072077
S2140830E0340807203C0807203C0807204408072027
S2140830F0440807204C0807204C08072054080720D7
S214083100540807205C0807205C0807206408072086
S214083110640807206C0807206C0807207408072036
S214083120740807207C0807207C08072084080720E6
S214083130840807208C0807208C0807209408072096
S214083140940807209C0807209C080720A408072046
S214083150A4080720AC080720AC080720B4080720F6
S214083160B4080720BC080720BC080720C4080720A6
S214083170C4080720CC080720CC080720D408072056
S214083180D4080720DC080720DC080720E408072006
S214083190E4080720EC080720EC080720F4080720B6
S2140831A0F4080720FC080720FC0807200409072065
S2140831B0040907200C0907200C0907201409072012
S2140831C0140907201C0907201C09072024090720C2
S2140831D0240907202C0907202C0907203409072072
S2140831E0340907203C0907203C0907204409072022
S2140831F0440907204C0907204C09072054090720D2
S2100832005409072000000200FFFFFFFF33
S804080745A7
